{
  "address": "0xe7f1725E7734CE288F8367e1Bb143E90bb3F0512",
  "abi": [
    {
      "anonymous": false,
      "inputs": [
        {
          "indexed": true,
          "internalType": "address",
          "name": "owner",
          "type": "address"
        },
        {
          "indexed": false,
          "internalType": "string",
          "name": "name",
          "type": "string"
        },
        {
          "indexed": false,
          "internalType": "uint256",
          "name": "age",
          "type": "uint256"
        }
      ],
      "name": "IdentityCreated",
      "type": "event"
    },
    {
      "anonymous": false,
      "inputs": [
        {
          "indexed": true,
          "internalType": "address",
          "name": "owner",
          "type": "address"
        }
      ],
      "name": "IdentityDeleted",
      "type": "event"
    },
    {
      "anonymous": false,
      "inputs": [
        {
          "indexed": true,
          "internalType": "address",
          "name": "owner",
          "type": "address"
        }
      ],
      "name": "IdentityRevoked",
      "type": "event"
    },
    {
      "anonymous": false,
      "inputs": [
        {
          "indexed": true,
          "internalType": "address",
          "name": "owner",
          "type": "address"
        },
        {
          "indexed": false,
          "internalType": "string",
          "name": "newName",
          "type": "string"
        },
        {
          "indexed": false,
          "internalType": "uint256",
          "name": "newAge",
          "type": "uint256"
        }
      ],
      "name": "IdentityUpdated",
      "type": "event"
    },
    {
      "anonymous": false,
      "inputs": [
        {
          "indexed": true,
          "internalType": "address",
          "name": "owner",
          "type": "address"
        }
      ],
      "name": "IdentityVerified",
      "type": "event"
    },
    {
      "inputs": [
        {
          "internalType": "string",
          "name": "name",
          "type": "string"
        },
        {
          "internalType": "uint256",
          "name": "age",
          "type": "uint256"
        }
      ],
      "name": "createIdentity",
      "outputs": [],
      "stateMutability": "nonpayable",
      "type": "function"
    },
    {
      "inputs": [],
      "name": "deleteIdentity",
      "outputs": [],
      "stateMutability": "nonpayable",
      "type": "function"
    },
    {
      "inputs": [],
      "name": "getAllIdentities",
      "outputs": [
        {
          "components": [
            {
              "internalType": "string",
              "name": "name",
              "type": "string"
            },
            {
              "internalType": "uint256",
              "name": "age",
              "type": "uint256"
            },
            {
              "internalType": "bool",
              "name": "exists",
              "type": "bool"
            },
            {
              "internalType": "bool",
              "name": "verified",
              "type": "bool"
            },
            {
              "internalType": "bool",
              "name": "revoked",
              "type": "bool"
            },
            {
              "internalType": "address",
              "name": "owner",
              "type": "address"
            }
          ],
          "internalType": "struct DecentralizedIdentity.Identity[]",
          "name": "",
          "type": "tuple[]"
        }
      ],
      "stateMutability": "view",
      "type": "function"
    },
    {
      "inputs": [
        {
          "internalType": "address",
          "name": "",
          "type": "address"
        }
      ],
      "name": "identities",
      "outputs": [
        {
          "internalType": "string",
          "name": "name",
          "type": "string"
        },
        {
          "internalType": "uint256",
          "name": "age",
          "type": "uint256"
        },
        {
          "internalType": "bool",
          "name": "exists",
          "type": "bool"
        },
        {
          "internalType": "bool",
          "name": "verified",
          "type": "bool"
        },
        {
          "internalType": "bool",
          "name": "revoked",
          "type": "bool"
        },
        {
          "internalType": "address",
          "name": "owner",
          "type": "address"
        }
      ],
      "stateMutability": "view",
      "type": "function"
    },
    {
      "inputs": [
        {
          "internalType": "uint256",
          "name": "",
          "type": "uint256"
        }
      ],
      "name": "identitiesByIndex",
      "outputs": [
        {
          "internalType": "address",
          "name": "",
          "type": "address"
        }
      ],
      "stateMutability": "view",
      "type": "function"
    },
    {
      "inputs": [],
      "name": "identityCount",
      "outputs": [
        {
          "internalType": "uint256",
          "name": "",
          "type": "uint256"
        }
      ],
      "stateMutability": "view",
      "type": "function"
    },
    {
      "inputs": [
        {
          "internalType": "address",
          "name": "identityOwner",
          "type": "address"
        }
      ],
      "name": "revokeIdentity",
      "outputs": [],
      "stateMutability": "nonpayable",
      "type": "function"
    },
    {
      "inputs": [
        {
          "internalType": "string",
          "name": "newName",
          "type": "string"
        },
        {
          "internalType": "uint256",
          "name": "newAge",
          "type": "uint256"
        }
      ],
      "name": "updateIdentity",
      "outputs": [],
      "stateMutability": "nonpayable",
      "type": "function"
    },
    {
      "inputs": [],
      "name": "verifyIdentity",
      "outputs": [],
      "stateMutability": "nonpayable",
      "type": "function"
    }
  ],
  "transactionHash": "0x69a894149a4703c88b24d22c2995b4692af08e7155263a651956a25bb1144614",
  "args": [],
  "numDeployments": 1,
  "solcInputHash": "4460e1ac9d51368ca581e1e5679809c4",
  "bytecode": "0x608060405234801561001057600080fd5b50611e13806100206000396000f3fe608060405234801561001057600080fd5b50600436106100935760003560e01c80637eeede35116100665780637eeede351461011e5780639ce7874b1461013c578063bc14e45714610146578063e8731c3214610162578063f653b81e1461016c57610093565b80630ebddd17146100985780632881ad6e146100b457806338678ba5146100e457806359b9248c14610102575b600080fd5b6100b260048036038101906100ad919061113b565b6101a1565b005b6100ce60048036038101906100c9919061119e565b61040e565b6040516100db91906111da565b60405180910390f35b6100ec610441565b6040516100f99190611204565b60405180910390f35b61011c60048036038101906101179190611365565b610447565b005b610126610602565b60405161013391906115c4565b60405180910390f35b610144610878565b005b610160600480360381019061015b9190611365565b610aee565b005b61016a610de1565b005b6101866004803603810190610181919061113b565b610f0f565b6040516101989695949392919061163f565b60405180910390f35b806000803373ffffffffffffffffffffffffffffffffffffffff1673ffffffffffffffffffffffffffffffffffffffff16815260200190815260200160002060020160009054906101000a900460ff16801561024857506000803373ffffffffffffffffffffffffffffffffffffffff1673ffffffffffffffffffffffffffffffffffffffff16815260200190815260200160002060020160019054906101000a900460ff165b610287576040517f08c379a000000000000000000000000000000000000000000000000000000000815260040161027e906116f3565b60405180910390fd5b6000808273ffffffffffffffffffffffffffffffffffffffff1673ffffffffffffffffffffffffffffffffffffffff16815260200190815260200160002060020160009054906101000a900460ff16801561032e57506000808273ffffffffffffffffffffffffffffffffffffffff1673ffffffffffffffffffffffffffffffffffffffff16815260200190815260200160002060020160029054906101000a900460ff16155b61036d576040517f08c379a000000000000000000000000000000000000000000000000000000000815260040161036490611785565b60405180910390fd5b60016000808473ffffffffffffffffffffffffffffffffffffffff1673ffffffffffffffffffffffffffffffffffffffff16815260200190815260200160002060020160026101000a81548160ff0219169083151502179055508173ffffffffffffffffffffffffffffffffffffffff167fccf550e579fbeb7d56da9a0175f8d4526535cab139e73b592516f1916d4075dd60405160405180910390a25050565b60016020528060005260406000206000915054906101000a900473ffffffffffffffffffffffffffffffffffffffff1681565b60025481565b6000803373ffffffffffffffffffffffffffffffffffffffff1673ffffffffffffffffffffffffffffffffffffffff16815260200190815260200160002060020160009054906101000a900460ff166104d5576040517f08c379a00000000000000000000000000000000000000000000000000000000081526004016104cc906117f1565b60405180910390fd5b6000825111610519576040517f08c379a00000000000000000000000000000000000000000000000000000000081526004016105109061185d565b60405180910390fd5b816000803373ffffffffffffffffffffffffffffffffffffffff1673ffffffffffffffffffffffffffffffffffffffff16815260200190815260200160002060000190816105679190611a89565b50806000803373ffffffffffffffffffffffffffffffffffffffff1673ffffffffffffffffffffffffffffffffffffffff168152602001908152602001600020600101819055503373ffffffffffffffffffffffffffffffffffffffff167ff766cba52472f168bac76b83b02493bdd09c6e1462599e934b7ecead5950d1d983836040516105f6929190611b5b565b60405180910390a25050565b6060600060025467ffffffffffffffff8111156106225761062161123a565b5b60405190808252806020026020018201604052801561065b57816020015b61064861101a565b8152602001906001900390816106405790505b5090506000600190505b60025481116108705760006001600083815260200190815260200160002060009054906101000a900473ffffffffffffffffffffffffffffffffffffffff1690506000808273ffffffffffffffffffffffffffffffffffffffff1673ffffffffffffffffffffffffffffffffffffffff1681526020019081526020016000206040518060c00160405290816000820180546106ff906118ac565b80601f016020809104026020016040519081016040528092919081815260200182805461072b906118ac565b80156107785780601f1061074d57610100808354040283529160200191610778565b820191906000526020600020905b81548152906001019060200180831161075b57829003601f168201915b50505050508152602001600182015481526020016002820160009054906101000a900460ff161515151581526020016002820160019054906101000a900460ff161515151581526020016002820160029054906101000a900460ff161515151581526020016002820160039054906101000a900473ffffffffffffffffffffffffffffffffffffffff1673ffffffffffffffffffffffffffffffffffffffff1673ffffffffffffffffffffffffffffffffffffffff1681525050836001846108409190611bba565b8151811061085157610850611bee565b5b602002602001018190525050808061086890611c1d565b915050610665565b508091505090565b336000803373ffffffffffffffffffffffffffffffffffffffff1673ffffffffffffffffffffffffffffffffffffffff16815260200190815260200160002060020160009054906101000a900460ff16801561091f57506000803373ffffffffffffffffffffffffffffffffffffffff1673ffffffffffffffffffffffffffffffffffffffff16815260200190815260200160002060020160019054906101000a900460ff165b61095e576040517f08c379a0000000000000000000000000000000000000000000000000000000008152600401610955906116f3565b60405180910390fd5b6000808273ffffffffffffffffffffffffffffffffffffffff1673ffffffffffffffffffffffffffffffffffffffff16815260200190815260200160002060020160009054906101000a900460ff166109ec576040517f08c379a00000000000000000000000000000000000000000000000000000000081526004016109e390611cb1565b60405180910390fd5b6000803373ffffffffffffffffffffffffffffffffffffffff1673ffffffffffffffffffffffffffffffffffffffff16815260200190815260200160002060008082016000610a3b919061106c565b60018201600090556002820160006101000a81549060ff02191690556002820160016101000a81549060ff02191690556002820160026101000a81549060ff02191690556002820160036101000a81549073ffffffffffffffffffffffffffffffffffffffff021916905550503373ffffffffffffffffffffffffffffffffffffffff167fc24bb9f4ebb7a8b8d37e375af6ac3f7e39d0218d2042bbd057d783048a904cd860405160405180910390a250565b6000803373ffffffffffffffffffffffffffffffffffffffff1673ffffffffffffffffffffffffffffffffffffffff16815260200190815260200160002060020160009054906101000a900460ff1615610b7d576040517f08c379a0000000000000000000000000000000000000000000000000000000008152600401610b7490611d1d565b60405180910390fd5b6000825111610bc1576040517f08c379a0000000000000000000000000000000000000000000000000000000008152600401610bb89061185d565b60405180910390fd5b6040518060c001604052808381526020018281526020016001151581526020016000151581526020016000151581526020013373ffffffffffffffffffffffffffffffffffffffff168152506000803373ffffffffffffffffffffffffffffffffffffffff1673ffffffffffffffffffffffffffffffffffffffff1681526020019081526020016000206000820151816000019081610c609190611a89565b506020820151816001015560408201518160020160006101000a81548160ff02191690831515021790555060608201518160020160016101000a81548160ff02191690831515021790555060808201518160020160026101000a81548160ff02191690831515021790555060a08201518160020160036101000a81548173ffffffffffffffffffffffffffffffffffffffff021916908373ffffffffffffffffffffffffffffffffffffffff16021790555090505033600160006001600254610d299190611d3d565b815260200190815260200160002060006101000a81548173ffffffffffffffffffffffffffffffffffffffff021916908373ffffffffffffffffffffffffffffffffffffffff16021790555060026000815480929190610d8890611c1d565b91905055503373ffffffffffffffffffffffffffffffffffffffff167f06bd209378e3df7a1561fcbdedeedd0d917023f6c33733a7320a02f1c84a62e78383604051610dd5929190611b5b565b60405180910390a25050565b6000803373ffffffffffffffffffffffffffffffffffffffff1673ffffffffffffffffffffffffffffffffffffffff16815260200190815260200160002060020160019054906101000a900460ff1615610e70576040517f08c379a0000000000000000000000000000000000000000000000000000000008152600401610e6790611dbd565b60405180910390fd5b60016000803373ffffffffffffffffffffffffffffffffffffffff1673ffffffffffffffffffffffffffffffffffffffff16815260200190815260200160002060020160016101000a81548160ff0219169083151502179055503373ffffffffffffffffffffffffffffffffffffffff167f02f93fdaafad8edad1ca75101b1fbda62e64ab9afc26d0ea801ccf6ef02c09ab60405160405180910390a2565b6000602052806000526040600020600091509050806000018054610f32906118ac565b80601f0160208091040260200160405190810160405280929190818152602001828054610f5e906118ac565b8015610fab5780601f10610f8057610100808354040283529160200191610fab565b820191906000526020600020905b815481529060010190602001808311610f8e57829003601f168201915b5050505050908060010154908060020160009054906101000a900460ff16908060020160019054906101000a900460ff16908060020160029054906101000a900460ff16908060020160039054906101000a900473ffffffffffffffffffffffffffffffffffffffff16905086565b6040518060c001604052806060815260200160008152602001600015158152602001600015158152602001600015158152602001600073ffffffffffffffffffffffffffffffffffffffff1681525090565b508054611078906118ac565b6000825580601f1061108a57506110a9565b601f0160209004906000526020600020908101906110a891906110ac565b5b50565b5b808211156110c55760008160009055506001016110ad565b5090565b6000604051905090565b600080fd5b600080fd5b600073ffffffffffffffffffffffffffffffffffffffff82169050919050565b6000611108826110dd565b9050919050565b611118816110fd565b811461112357600080fd5b50565b6000813590506111358161110f565b92915050565b600060208284031215611151576111506110d3565b5b600061115f84828501611126565b91505092915050565b6000819050919050565b61117b81611168565b811461118657600080fd5b50565b60008135905061119881611172565b92915050565b6000602082840312156111b4576111b36110d3565b5b60006111c284828501611189565b91505092915050565b6111d4816110fd565b82525050565b60006020820190506111ef60008301846111cb565b92915050565b6111fe81611168565b82525050565b600060208201905061121960008301846111f5565b92915050565b600080fd5b600080fd5b6000601f19601f8301169050919050565b7f4e487b7100000000000000000000000000000000000000000000000000000000600052604160045260246000fd5b61127282611229565b810181811067ffffffffffffffff821117156112915761129061123a565b5b80604052505050565b60006112a46110c9565b90506112b08282611269565b919050565b600067ffffffffffffffff8211156112d0576112cf61123a565b5b6112d982611229565b9050602081019050919050565b82818337600083830152505050565b6000611308611303846112b5565b61129a565b90508281526020810184848401111561132457611323611224565b5b61132f8482856112e6565b509392505050565b600082601f83011261134c5761134b61121f565b5b813561135c8482602086016112f5565b91505092915050565b6000806040838503121561137c5761137b6110d3565b5b600083013567ffffffffffffffff81111561139a576113996110d8565b5b6113a685828601611337565b92505060206113b785828601611189565b9150509250929050565b600081519050919050565b600082825260208201905092915050565b6000819050602082019050919050565b600081519050919050565b600082825260208201905092915050565b60005b8381101561142757808201518184015260208101905061140c565b60008484015250505050565b600061143e826113ed565b61144881856113f8565b9350611458818560208601611409565b61146181611229565b840191505092915050565b61147581611168565b82525050565b60008115159050919050565b6114908161147b565b82525050565b61149f816110fd565b82525050565b600060c08301600083015184820360008601526114c28282611433565b91505060208301516114d7602086018261146c565b5060408301516114ea6040860182611487565b5060608301516114fd6060860182611487565b5060808301516115106080860182611487565b5060a083015161152360a0860182611496565b508091505092915050565b600061153a83836114a5565b905092915050565b6000602082019050919050565b600061155a826113c1565b61156481856113cc565b935083602082028501611576856113dd565b8060005b858110156115b25784840389528151611593858261152e565b945061159e83611542565b925060208a0199505060018101905061157a565b50829750879550505050505092915050565b600060208201905081810360008301526115de818461154f565b905092915050565b600082825260208201905092915050565b6000611602826113ed565b61160c81856115e6565b935061161c818560208601611409565b61162581611229565b840191505092915050565b6116398161147b565b82525050565b600060c082019050818103600083015261165981896115f7565b905061166860208301886111f5565b6116756040830187611630565b6116826060830186611630565b61168f6080830185611630565b61169c60a08301846111cb565b979650505050505050565b7f4e6f742061207665726966696564206964656e74697479000000000000000000600082015250565b60006116dd6017836115e6565b91506116e8826116a7565b602082019050919050565b6000602082019050818103600083015261170c816116d0565b9050919050565b7f4964656e74697479206e6f742076616c696420666f72207265766f636174696f60008201527f6e00000000000000000000000000000000000000000000000000000000000000602082015250565b600061176f6021836115e6565b915061177a82611713565b604082019050919050565b6000602082019050818103600083015261179e81611762565b9050919050565b7f4964656e7469747920646f6573206e6f74206578697374000000000000000000600082015250565b60006117db6017836115e6565b91506117e6826117a5565b602082019050919050565b6000602082019050818103600083015261180a816117ce565b9050919050565b7f4e616d652063616e6e6f7420626520656d707479000000000000000000000000600082015250565b60006118476014836115e6565b915061185282611811565b602082019050919050565b600060208201905081810360008301526118768161183a565b9050919050565b7f4e487b7100000000000000000000000000000000000000000000000000000000600052602260045260246000fd5b600060028204905060018216806118c457607f821691505b6020821081036118d7576118d661187d565b5b50919050565b60008190508160005260206000209050919050565b60006020601f8301049050919050565b600082821b905092915050565b60006008830261193f7fffffffffffffffffffffffffffffffffffffffffffffffffffffffffffffffff82611902565b6119498683611902565b95508019841693508086168417925050509392505050565b6000819050919050565b600061198661198161197c84611168565b611961565b611168565b9050919050565b6000819050919050565b6119a08361196b565b6119b46119ac8261198d565b84845461190f565b825550505050565b600090565b6119c96119bc565b6119d4818484611997565b505050565b5b818110156119f8576119ed6000826119c1565b6001810190506119da565b5050565b601f821115611a3d57611a0e816118dd565b611a17846118f2565b81016020851015611a26578190505b611a3a611a32856118f2565b8301826119d9565b50505b505050565b600082821c905092915050565b6000611a6060001984600802611a42565b1980831691505092915050565b6000611a798383611a4f565b9150826002028217905092915050565b611a92826113ed565b67ffffffffffffffff811115611aab57611aaa61123a565b5b611ab582546118ac565b611ac08282856119fc565b600060209050601f831160018114611af35760008415611ae1578287015190505b611aeb8582611a6d565b865550611b53565b601f198416611b01866118dd565b60005b82811015611b2957848901518255600182019150602085019450602081019050611b04565b86831015611b465784890151611b42601f891682611a4f565b8355505b6001600288020188555050505b505050505050565b60006040820190508181036000830152611b7581856115f7565b9050611b8460208301846111f5565b9392505050565b7f4e487b7100000000000000000000000000000000000000000000000000000000600052601160045260246000fd5b6000611bc582611168565b9150611bd083611168565b9250828203905081811115611be857611be7611b8b565b5b92915050565b7f4e487b7100000000000000000000000000000000000000000000000000000000600052603260045260246000fd5b6000611c2882611168565b91507fffffffffffffffffffffffffffffffffffffffffffffffffffffffffffffffff8203611c5a57611c59611b8b565b5b600182019050919050565b7f4964656e74697479206e6f742076616c696420666f722064656c6574696f6e00600082015250565b6000611c9b601f836115e6565b9150611ca682611c65565b602082019050919050565b60006020820190508181036000830152611cca81611c8e565b9050919050565b7f4964656e7469747920616c726561647920657869737473000000000000000000600082015250565b6000611d076017836115e6565b9150611d1282611cd1565b602082019050919050565b60006020820190508181036000830152611d3681611cfa565b9050919050565b6000611d4882611168565b9150611d5383611168565b9250828201905080821115611d6b57611d6a611b8b565b5b92915050565b7f4964656e7469747920616c726561647920766572696669656400000000000000600082015250565b6000611da76019836115e6565b9150611db282611d71565b602082019050919050565b60006020820190508181036000830152611dd681611d9a565b905091905056fea26469706673582212207c0e7c3e1c70e050d9c74fae54ee46be2ea55491c6d252ec96872cf28812be7c64736f6c63430008140033",
  "devdoc": {
    "kind": "dev",
    "methods": {
      "createIdentity(string,uint256)": {
        "details": "Function to create a new identity",
        "params": {
          "age": "The age of the identity",
          "name": "The name of the identity"
        }
      },
      "deleteIdentity()": {
        "details": "Function to delete an identity"
      },
      "getAllIdentities()": {
        "details": "Function to get details of all identities",
        "returns": {
          "_0": "An array of Identity structs representing all identities"
        }
      },
      "revokeIdentity(address)": {
        "details": "Function to revoke an identity"
      },
      "updateIdentity(string,uint256)": {
        "details": "Function to update an identity",
        "params": {
          "newAge": "The new age of the identity",
          "newName": "The new name of the identity"
        }
      },
      "verifyIdentity()": {
        "details": "Function to verify an identity"
      }
    },
    "version": 1
  },
  "userdoc": {
    "kind": "user",
    "methods": {},
    "version": 1
  },
  "storageLayout": {
    "storage": [
      {
        "astId": 19,
        "contract": "contracts/Did.sol:DecentralizedIdentity",
        "label": "identities",
        "offset": 0,
        "slot": "0",
        "type": "t_mapping(t_address,t_struct(Identity)14_storage)"
      },
      {
        "astId": 23,
        "contract": "contracts/Did.sol:DecentralizedIdentity",
        "label": "identitiesByIndex",
        "offset": 0,
        "slot": "1",
        "type": "t_mapping(t_uint256,t_address)"
      },
      {
        "astId": 25,
        "contract": "contracts/Did.sol:DecentralizedIdentity",
        "label": "identityCount",
        "offset": 0,
        "slot": "2",
        "type": "t_uint256"
      }
    ],
    "types": {
      "t_address": {
        "encoding": "inplace",
        "label": "address",
        "numberOfBytes": "20"
      },
      "t_bool": {
        "encoding": "inplace",
        "label": "bool",
        "numberOfBytes": "1"
      },
      "t_mapping(t_address,t_struct(Identity)14_storage)": {
        "encoding": "mapping",
        "key": "t_address",
        "label": "mapping(address => struct DecentralizedIdentity.Identity)",
        "numberOfBytes": "32",
        "value": "t_struct(Identity)14_storage"
      },
      "t_mapping(t_uint256,t_address)": {
        "encoding": "mapping",
        "key": "t_uint256",
        "label": "mapping(uint256 => address)",
        "numberOfBytes": "32",
        "value": "t_address"
      },
      "t_string_storage": {
        "encoding": "bytes",
        "label": "string",
        "numberOfBytes": "32"
      },
      "t_struct(Identity)14_storage": {
        "encoding": "inplace",
        "label": "struct DecentralizedIdentity.Identity",
        "members": [
          {
            "astId": 3,
            "contract": "contracts/Did.sol:DecentralizedIdentity",
            "label": "name",
            "offset": 0,
            "slot": "0",
            "type": "t_string_storage"
          },
          {
            "astId": 5,
            "contract": "contracts/Did.sol:DecentralizedIdentity",
            "label": "age",
            "offset": 0,
            "slot": "1",
            "type": "t_uint256"
          },
          {
            "astId": 7,
            "contract": "contracts/Did.sol:DecentralizedIdentity",
            "label": "exists",
            "offset": 0,
            "slot": "2",
            "type": "t_bool"
          },
          {
            "astId": 9,
            "contract": "contracts/Did.sol:DecentralizedIdentity",
            "label": "verified",
            "offset": 1,
            "slot": "2",
            "type": "t_bool"
          },
          {
            "astId": 11,
            "contract": "contracts/Did.sol:DecentralizedIdentity",
            "label": "revoked",
            "offset": 2,
            "slot": "2",
            "type": "t_bool"
          },
          {
            "astId": 13,
            "contract": "contracts/Did.sol:DecentralizedIdentity",
            "label": "owner",
            "offset": 3,
            "slot": "2",
            "type": "t_address"
          }
        ],
        "numberOfBytes": "96"
      },
      "t_uint256": {
        "encoding": "inplace",
        "label": "uint256",
        "numberOfBytes": "32"
      }
    }
  }
}