{
  "address": "0xe7f1725E7734CE288F8367e1Bb143E90bb3F0512",
  "abi": [
    {
      "anonymous": false,
      "inputs": [
        {
          "indexed": true,
          "internalType": "address",
          "name": "owner",
          "type": "address"
        },
        {
          "indexed": false,
          "internalType": "string",
          "name": "name",
          "type": "string"
        },
        {
          "indexed": false,
          "internalType": "uint256",
          "name": "age",
          "type": "uint256"
        }
      ],
      "name": "IdentityCreated",
      "type": "event"
    },
    {
      "anonymous": false,
      "inputs": [
        {
          "indexed": true,
          "internalType": "address",
          "name": "owner",
          "type": "address"
        }
      ],
      "name": "IdentityDeleted",
      "type": "event"
    },
    {
      "anonymous": false,
      "inputs": [
        {
          "indexed": true,
          "internalType": "address",
          "name": "owner",
          "type": "address"
        }
      ],
      "name": "IdentityRevoked",
      "type": "event"
    },
    {
      "anonymous": false,
      "inputs": [
        {
          "indexed": true,
          "internalType": "address",
          "name": "owner",
          "type": "address"
        },
        {
          "indexed": false,
          "internalType": "string",
          "name": "newName",
          "type": "string"
        },
        {
          "indexed": false,
          "internalType": "uint256",
          "name": "newAge",
          "type": "uint256"
        }
      ],
      "name": "IdentityUpdated",
      "type": "event"
    },
    {
      "anonymous": false,
      "inputs": [
        {
          "indexed": true,
          "internalType": "address",
          "name": "owner",
          "type": "address"
        }
      ],
      "name": "IdentityVerified",
      "type": "event"
    },
    {
      "inputs": [
        {
          "internalType": "string",
          "name": "name",
          "type": "string"
        },
        {
          "internalType": "uint256",
          "name": "age",
          "type": "uint256"
        }
      ],
      "name": "createIdentity",
      "outputs": [],
      "stateMutability": "nonpayable",
      "type": "function"
    },
    {
      "inputs": [
        {
          "internalType": "address",
          "name": "identityOwner",
          "type": "address"
        }
      ],
      "name": "deleteIdentity",
      "outputs": [],
      "stateMutability": "nonpayable",
      "type": "function"
    },
    {
      "inputs": [],
      "name": "getAllIdentities",
      "outputs": [
        {
          "components": [
            {
              "internalType": "string",
              "name": "name",
              "type": "string"
            },
            {
              "internalType": "uint256",
              "name": "age",
              "type": "uint256"
            },
            {
              "internalType": "bool",
              "name": "exists",
              "type": "bool"
            },
            {
              "internalType": "bool",
              "name": "verified",
              "type": "bool"
            },
            {
              "internalType": "bool",
              "name": "revoked",
              "type": "bool"
            },
            {
              "internalType": "address",
              "name": "owner",
              "type": "address"
            }
          ],
          "internalType": "struct DecentralizedIdentity.Identity[]",
          "name": "",
          "type": "tuple[]"
        }
      ],
      "stateMutability": "view",
      "type": "function"
    },
    {
      "inputs": [
        {
          "internalType": "address",
          "name": "",
          "type": "address"
        }
      ],
      "name": "identities",
      "outputs": [
        {
          "internalType": "string",
          "name": "name",
          "type": "string"
        },
        {
          "internalType": "uint256",
          "name": "age",
          "type": "uint256"
        },
        {
          "internalType": "bool",
          "name": "exists",
          "type": "bool"
        },
        {
          "internalType": "bool",
          "name": "verified",
          "type": "bool"
        },
        {
          "internalType": "bool",
          "name": "revoked",
          "type": "bool"
        },
        {
          "internalType": "address",
          "name": "owner",
          "type": "address"
        }
      ],
      "stateMutability": "view",
      "type": "function"
    },
    {
      "inputs": [
        {
          "internalType": "uint256",
          "name": "",
          "type": "uint256"
        }
      ],
      "name": "identitiesByIndex",
      "outputs": [
        {
          "internalType": "address",
          "name": "",
          "type": "address"
        }
      ],
      "stateMutability": "view",
      "type": "function"
    },
    {
      "inputs": [],
      "name": "identityCount",
      "outputs": [
        {
          "internalType": "uint256",
          "name": "",
          "type": "uint256"
        }
      ],
      "stateMutability": "view",
      "type": "function"
    },
    {
      "inputs": [
        {
          "internalType": "address",
          "name": "identityOwner",
          "type": "address"
        }
      ],
      "name": "revokeIdentity",
      "outputs": [],
      "stateMutability": "nonpayable",
      "type": "function"
    },
    {
      "inputs": [
        {
          "internalType": "string",
          "name": "newName",
          "type": "string"
        },
        {
          "internalType": "uint256",
          "name": "newAge",
          "type": "uint256"
        }
      ],
      "name": "updateIdentity",
      "outputs": [],
      "stateMutability": "nonpayable",
      "type": "function"
    },
    {
      "inputs": [
        {
          "internalType": "address",
          "name": "identityOwner",
          "type": "address"
        }
      ],
      "name": "verifyIdentity",
      "outputs": [],
      "stateMutability": "nonpayable",
      "type": "function"
    }
  ],
  "transactionHash": "0x1f8462e56149da7c18f70c4309574185e41f531bbc72c6621db6ddf1f4d2f7a2",
  "args": [],
  "numDeployments": 1,
  "solcInputHash": "a4b9ce7ce48f298b78d51073ba980a07",
  "bytecode": "0x608060405234801561001057600080fd5b50611e39806100206000396000f3fe608060405234801561001057600080fd5b50600436106100935760003560e01c80637eeede35116100665780637eeede351461011e578063a8d29d1d1461013c578063b5b90fd914610158578063bc14e45714610174578063f653b81e1461019057610093565b80630ebddd17146100985780632881ad6e146100b457806338678ba5146100e457806359b9248c14610102575b600080fd5b6100b260048036038101906100ad9190611161565b6101c5565b005b6100ce60048036038101906100c991906111c4565b610432565b6040516100db9190611200565b60405180910390f35b6100ec610465565b6040516100f9919061122a565b60405180910390f35b61011c6004803603810190610117919061138b565b61046b565b005b610126610626565b60405161013391906115ea565b60405180910390f35b61015660048036038101906101519190611161565b61089c565b005b610172600480360381019061016d9190611161565b610b13565b005b61018e6004803603810190610189919061138b565b610c42565b005b6101aa60048036038101906101a59190611161565b610f35565b6040516101bc96959493929190611665565b60405180910390f35b806000803373ffffffffffffffffffffffffffffffffffffffff1673ffffffffffffffffffffffffffffffffffffffff16815260200190815260200160002060020160009054906101000a900460ff16801561026c57506000803373ffffffffffffffffffffffffffffffffffffffff1673ffffffffffffffffffffffffffffffffffffffff16815260200190815260200160002060020160019054906101000a900460ff165b6102ab576040517f08c379a00000000000000000000000000000000000000000000000000000000081526004016102a290611719565b60405180910390fd5b6000808273ffffffffffffffffffffffffffffffffffffffff1673ffffffffffffffffffffffffffffffffffffffff16815260200190815260200160002060020160009054906101000a900460ff16801561035257506000808273ffffffffffffffffffffffffffffffffffffffff1673ffffffffffffffffffffffffffffffffffffffff16815260200190815260200160002060020160029054906101000a900460ff16155b610391576040517f08c379a0000000000000000000000000000000000000000000000000000000008152600401610388906117ab565b60405180910390fd5b60016000808473ffffffffffffffffffffffffffffffffffffffff1673ffffffffffffffffffffffffffffffffffffffff16815260200190815260200160002060020160026101000a81548160ff0219169083151502179055508173ffffffffffffffffffffffffffffffffffffffff167fccf550e579fbeb7d56da9a0175f8d4526535cab139e73b592516f1916d4075dd60405160405180910390a25050565b60016020528060005260406000206000915054906101000a900473ffffffffffffffffffffffffffffffffffffffff1681565b60025481565b6000803373ffffffffffffffffffffffffffffffffffffffff1673ffffffffffffffffffffffffffffffffffffffff16815260200190815260200160002060020160009054906101000a900460ff166104f9576040517f08c379a00000000000000000000000000000000000000000000000000000000081526004016104f090611817565b60405180910390fd5b600082511161053d576040517f08c379a000000000000000000000000000000000000000000000000000000000815260040161053490611883565b60405180910390fd5b816000803373ffffffffffffffffffffffffffffffffffffffff1673ffffffffffffffffffffffffffffffffffffffff168152602001908152602001600020600001908161058b9190611aaf565b50806000803373ffffffffffffffffffffffffffffffffffffffff1673ffffffffffffffffffffffffffffffffffffffff168152602001908152602001600020600101819055503373ffffffffffffffffffffffffffffffffffffffff167ff766cba52472f168bac76b83b02493bdd09c6e1462599e934b7ecead5950d1d9838360405161061a929190611b81565b60405180910390a25050565b6060600060025467ffffffffffffffff81111561064657610645611260565b5b60405190808252806020026020018201604052801561067f57816020015b61066c611040565b8152602001906001900390816106645790505b5090506000600190505b60025481116108945760006001600083815260200190815260200160002060009054906101000a900473ffffffffffffffffffffffffffffffffffffffff1690506000808273ffffffffffffffffffffffffffffffffffffffff1673ffffffffffffffffffffffffffffffffffffffff1681526020019081526020016000206040518060c0016040529081600082018054610723906118d2565b80601f016020809104026020016040519081016040528092919081815260200182805461074f906118d2565b801561079c5780601f106107715761010080835404028352916020019161079c565b820191906000526020600020905b81548152906001019060200180831161077f57829003601f168201915b50505050508152602001600182015481526020016002820160009054906101000a900460ff161515151581526020016002820160019054906101000a900460ff161515151581526020016002820160029054906101000a900460ff161515151581526020016002820160039054906101000a900473ffffffffffffffffffffffffffffffffffffffff1673ffffffffffffffffffffffffffffffffffffffff1673ffffffffffffffffffffffffffffffffffffffff1681525050836001846108649190611be0565b8151811061087557610874611c14565b5b602002602001018190525050808061088c90611c43565b915050610689565b508091505090565b806000803373ffffffffffffffffffffffffffffffffffffffff1673ffffffffffffffffffffffffffffffffffffffff16815260200190815260200160002060020160009054906101000a900460ff16801561094357506000803373ffffffffffffffffffffffffffffffffffffffff1673ffffffffffffffffffffffffffffffffffffffff16815260200190815260200160002060020160019054906101000a900460ff165b610982576040517f08c379a000000000000000000000000000000000000000000000000000000000815260040161097990611719565b60405180910390fd5b6000808273ffffffffffffffffffffffffffffffffffffffff1673ffffffffffffffffffffffffffffffffffffffff16815260200190815260200160002060020160009054906101000a900460ff16610a10576040517f08c379a0000000000000000000000000000000000000000000000000000000008152600401610a0790611cd7565b60405180910390fd5b6000808373ffffffffffffffffffffffffffffffffffffffff1673ffffffffffffffffffffffffffffffffffffffff16815260200190815260200160002060008082016000610a5f9190611092565b60018201600090556002820160006101000a81549060ff02191690556002820160016101000a81549060ff02191690556002820160026101000a81549060ff02191690556002820160036101000a81549073ffffffffffffffffffffffffffffffffffffffff021916905550508173ffffffffffffffffffffffffffffffffffffffff167fc24bb9f4ebb7a8b8d37e375af6ac3f7e39d0218d2042bbd057d783048a904cd860405160405180910390a25050565b6000808273ffffffffffffffffffffffffffffffffffffffff1673ffffffffffffffffffffffffffffffffffffffff16815260200190815260200160002060020160019054906101000a900460ff1615610ba2576040517f08c379a0000000000000000000000000000000000000000000000000000000008152600401610b9990611d43565b60405180910390fd5b60016000808373ffffffffffffffffffffffffffffffffffffffff1673ffffffffffffffffffffffffffffffffffffffff16815260200190815260200160002060020160016101000a81548160ff0219169083151502179055508073ffffffffffffffffffffffffffffffffffffffff167f02f93fdaafad8edad1ca75101b1fbda62e64ab9afc26d0ea801ccf6ef02c09ab60405160405180910390a250565b6000803373ffffffffffffffffffffffffffffffffffffffff1673ffffffffffffffffffffffffffffffffffffffff16815260200190815260200160002060020160009054906101000a900460ff1615610cd1576040517f08c379a0000000000000000000000000000000000000000000000000000000008152600401610cc890611daf565b60405180910390fd5b6000825111610d15576040517f08c379a0000000000000000000000000000000000000000000000000000000008152600401610d0c90611883565b60405180910390fd5b6040518060c001604052808381526020018281526020016001151581526020016000151581526020016000151581526020013373ffffffffffffffffffffffffffffffffffffffff168152506000803373ffffffffffffffffffffffffffffffffffffffff1673ffffffffffffffffffffffffffffffffffffffff1681526020019081526020016000206000820151816000019081610db49190611aaf565b506020820151816001015560408201518160020160006101000a81548160ff02191690831515021790555060608201518160020160016101000a81548160ff02191690831515021790555060808201518160020160026101000a81548160ff02191690831515021790555060a08201518160020160036101000a81548173ffffffffffffffffffffffffffffffffffffffff021916908373ffffffffffffffffffffffffffffffffffffffff16021790555090505033600160006001600254610e7d9190611dcf565b815260200190815260200160002060006101000a81548173ffffffffffffffffffffffffffffffffffffffff021916908373ffffffffffffffffffffffffffffffffffffffff16021790555060026000815480929190610edc90611c43565b91905055503373ffffffffffffffffffffffffffffffffffffffff167f06bd209378e3df7a1561fcbdedeedd0d917023f6c33733a7320a02f1c84a62e78383604051610f29929190611b81565b60405180910390a25050565b6000602052806000526040600020600091509050806000018054610f58906118d2565b80601f0160208091040260200160405190810160405280929190818152602001828054610f84906118d2565b8015610fd15780601f10610fa657610100808354040283529160200191610fd1565b820191906000526020600020905b815481529060010190602001808311610fb457829003601f168201915b5050505050908060010154908060020160009054906101000a900460ff16908060020160019054906101000a900460ff16908060020160029054906101000a900460ff16908060020160039054906101000a900473ffffffffffffffffffffffffffffffffffffffff16905086565b6040518060c001604052806060815260200160008152602001600015158152602001600015158152602001600015158152602001600073ffffffffffffffffffffffffffffffffffffffff1681525090565b50805461109e906118d2565b6000825580601f106110b057506110cf565b601f0160209004906000526020600020908101906110ce91906110d2565b5b50565b5b808211156110eb5760008160009055506001016110d3565b5090565b6000604051905090565b600080fd5b600080fd5b600073ffffffffffffffffffffffffffffffffffffffff82169050919050565b600061112e82611103565b9050919050565b61113e81611123565b811461114957600080fd5b50565b60008135905061115b81611135565b92915050565b600060208284031215611177576111766110f9565b5b60006111858482850161114c565b91505092915050565b6000819050919050565b6111a18161118e565b81146111ac57600080fd5b50565b6000813590506111be81611198565b92915050565b6000602082840312156111da576111d96110f9565b5b60006111e8848285016111af565b91505092915050565b6111fa81611123565b82525050565b600060208201905061121560008301846111f1565b92915050565b6112248161118e565b82525050565b600060208201905061123f600083018461121b565b92915050565b600080fd5b600080fd5b6000601f19601f8301169050919050565b7f4e487b7100000000000000000000000000000000000000000000000000000000600052604160045260246000fd5b6112988261124f565b810181811067ffffffffffffffff821117156112b7576112b6611260565b5b80604052505050565b60006112ca6110ef565b90506112d6828261128f565b919050565b600067ffffffffffffffff8211156112f6576112f5611260565b5b6112ff8261124f565b9050602081019050919050565b82818337600083830152505050565b600061132e611329846112db565b6112c0565b90508281526020810184848401111561134a5761134961124a565b5b61135584828561130c565b509392505050565b600082601f83011261137257611371611245565b5b813561138284826020860161131b565b91505092915050565b600080604083850312156113a2576113a16110f9565b5b600083013567ffffffffffffffff8111156113c0576113bf6110fe565b5b6113cc8582860161135d565b92505060206113dd858286016111af565b9150509250929050565b600081519050919050565b600082825260208201905092915050565b6000819050602082019050919050565b600081519050919050565b600082825260208201905092915050565b60005b8381101561144d578082015181840152602081019050611432565b60008484015250505050565b600061146482611413565b61146e818561141e565b935061147e81856020860161142f565b6114878161124f565b840191505092915050565b61149b8161118e565b82525050565b60008115159050919050565b6114b6816114a1565b82525050565b6114c581611123565b82525050565b600060c08301600083015184820360008601526114e88282611459565b91505060208301516114fd6020860182611492565b50604083015161151060408601826114ad565b50606083015161152360608601826114ad565b50608083015161153660808601826114ad565b5060a083015161154960a08601826114bc565b508091505092915050565b600061156083836114cb565b905092915050565b6000602082019050919050565b6000611580826113e7565b61158a81856113f2565b93508360208202850161159c85611403565b8060005b858110156115d857848403895281516115b98582611554565b94506115c483611568565b925060208a019950506001810190506115a0565b50829750879550505050505092915050565b600060208201905081810360008301526116048184611575565b905092915050565b600082825260208201905092915050565b600061162882611413565b611632818561160c565b935061164281856020860161142f565b61164b8161124f565b840191505092915050565b61165f816114a1565b82525050565b600060c082019050818103600083015261167f818961161d565b905061168e602083018861121b565b61169b6040830187611656565b6116a86060830186611656565b6116b56080830185611656565b6116c260a08301846111f1565b979650505050505050565b7f4e6f742061207665726966696564206964656e74697479000000000000000000600082015250565b600061170360178361160c565b915061170e826116cd565b602082019050919050565b60006020820190508181036000830152611732816116f6565b9050919050565b7f4964656e74697479206e6f742076616c696420666f72207265766f636174696f60008201527f6e00000000000000000000000000000000000000000000000000000000000000602082015250565b600061179560218361160c565b91506117a082611739565b604082019050919050565b600060208201905081810360008301526117c481611788565b9050919050565b7f4964656e7469747920646f6573206e6f74206578697374000000000000000000600082015250565b600061180160178361160c565b915061180c826117cb565b602082019050919050565b60006020820190508181036000830152611830816117f4565b9050919050565b7f4e616d652063616e6e6f7420626520656d707479000000000000000000000000600082015250565b600061186d60148361160c565b915061187882611837565b602082019050919050565b6000602082019050818103600083015261189c81611860565b9050919050565b7f4e487b7100000000000000000000000000000000000000000000000000000000600052602260045260246000fd5b600060028204905060018216806118ea57607f821691505b6020821081036118fd576118fc6118a3565b5b50919050565b60008190508160005260206000209050919050565b60006020601f8301049050919050565b600082821b905092915050565b6000600883026119657fffffffffffffffffffffffffffffffffffffffffffffffffffffffffffffffff82611928565b61196f8683611928565b95508019841693508086168417925050509392505050565b6000819050919050565b60006119ac6119a76119a28461118e565b611987565b61118e565b9050919050565b6000819050919050565b6119c683611991565b6119da6119d2826119b3565b848454611935565b825550505050565b600090565b6119ef6119e2565b6119fa8184846119bd565b505050565b5b81811015611a1e57611a136000826119e7565b600181019050611a00565b5050565b601f821115611a6357611a3481611903565b611a3d84611918565b81016020851015611a4c578190505b611a60611a5885611918565b8301826119ff565b50505b505050565b600082821c905092915050565b6000611a8660001984600802611a68565b1980831691505092915050565b6000611a9f8383611a75565b9150826002028217905092915050565b611ab882611413565b67ffffffffffffffff811115611ad157611ad0611260565b5b611adb82546118d2565b611ae6828285611a22565b600060209050601f831160018114611b195760008415611b07578287015190505b611b118582611a93565b865550611b79565b601f198416611b2786611903565b60005b82811015611b4f57848901518255600182019150602085019450602081019050611b2a565b86831015611b6c5784890151611b68601f891682611a75565b8355505b6001600288020188555050505b505050505050565b60006040820190508181036000830152611b9b818561161d565b9050611baa602083018461121b565b9392505050565b7f4e487b7100000000000000000000000000000000000000000000000000000000600052601160045260246000fd5b6000611beb8261118e565b9150611bf68361118e565b9250828203905081811115611c0e57611c0d611bb1565b5b92915050565b7f4e487b7100000000000000000000000000000000000000000000000000000000600052603260045260246000fd5b6000611c4e8261118e565b91507fffffffffffffffffffffffffffffffffffffffffffffffffffffffffffffffff8203611c8057611c7f611bb1565b5b600182019050919050565b7f4964656e74697479206e6f742076616c696420666f722064656c6574696f6e00600082015250565b6000611cc1601f8361160c565b9150611ccc82611c8b565b602082019050919050565b60006020820190508181036000830152611cf081611cb4565b9050919050565b7f4964656e7469747920616c726561647920766572696669656400000000000000600082015250565b6000611d2d60198361160c565b9150611d3882611cf7565b602082019050919050565b60006020820190508181036000830152611d5c81611d20565b9050919050565b7f4964656e7469747920616c726561647920657869737473000000000000000000600082015250565b6000611d9960178361160c565b9150611da482611d63565b602082019050919050565b60006020820190508181036000830152611dc881611d8c565b9050919050565b6000611dda8261118e565b9150611de58361118e565b9250828201905080821115611dfd57611dfc611bb1565b5b9291505056fea264697066735822122094841ca01ee0fb207b4aa72c034b0aed811c417b25a2571a67e75adf4d93b98c64736f6c63430008140033",
  "devdoc": {
    "kind": "dev",
    "methods": {
      "createIdentity(string,uint256)": {
        "details": "Function to create a new identity",
        "params": {
          "age": "The age of the identity",
          "name": "The name of the identity"
        }
      },
      "deleteIdentity(address)": {
        "details": "Function to delete an identity",
        "params": {
          "identityOwner": "The address of the identity to be deleted"
        }
      },
      "getAllIdentities()": {
        "details": "Function to get details of all identities",
        "returns": {
          "_0": "An array of Identity structs representing all identities"
        }
      },
      "revokeIdentity(address)": {
        "details": "Function to revoke an identity",
        "params": {
          "identityOwner": "The address of the identity to be revoked"
        }
      },
      "updateIdentity(string,uint256)": {
        "details": "Function to update an identity",
        "params": {
          "newAge": "The new age of the identity",
          "newName": "The new name of the identity"
        }
      },
      "verifyIdentity(address)": {
        "details": "Function to verify an identity",
        "params": {
          "identityOwner": "The address of the identity to be verified"
        }
      }
    },
    "version": 1
  },
  "userdoc": {
    "kind": "user",
    "methods": {},
    "version": 1
  },
  "storageLayout": {
    "storage": [
      {
        "astId": 19,
        "contract": "contracts/Did.sol:DecentralizedIdentity",
        "label": "identities",
        "offset": 0,
        "slot": "0",
        "type": "t_mapping(t_address,t_struct(Identity)14_storage)"
      },
      {
        "astId": 23,
        "contract": "contracts/Did.sol:DecentralizedIdentity",
        "label": "identitiesByIndex",
        "offset": 0,
        "slot": "1",
        "type": "t_mapping(t_uint256,t_address)"
      },
      {
        "astId": 25,
        "contract": "contracts/Did.sol:DecentralizedIdentity",
        "label": "identityCount",
        "offset": 0,
        "slot": "2",
        "type": "t_uint256"
      }
    ],
    "types": {
      "t_address": {
        "encoding": "inplace",
        "label": "address",
        "numberOfBytes": "20"
      },
      "t_bool": {
        "encoding": "inplace",
        "label": "bool",
        "numberOfBytes": "1"
      },
      "t_mapping(t_address,t_struct(Identity)14_storage)": {
        "encoding": "mapping",
        "key": "t_address",
        "label": "mapping(address => struct DecentralizedIdentity.Identity)",
        "numberOfBytes": "32",
        "value": "t_struct(Identity)14_storage"
      },
      "t_mapping(t_uint256,t_address)": {
        "encoding": "mapping",
        "key": "t_uint256",
        "label": "mapping(uint256 => address)",
        "numberOfBytes": "32",
        "value": "t_address"
      },
      "t_string_storage": {
        "encoding": "bytes",
        "label": "string",
        "numberOfBytes": "32"
      },
      "t_struct(Identity)14_storage": {
        "encoding": "inplace",
        "label": "struct DecentralizedIdentity.Identity",
        "members": [
          {
            "astId": 3,
            "contract": "contracts/Did.sol:DecentralizedIdentity",
            "label": "name",
            "offset": 0,
            "slot": "0",
            "type": "t_string_storage"
          },
          {
            "astId": 5,
            "contract": "contracts/Did.sol:DecentralizedIdentity",
            "label": "age",
            "offset": 0,
            "slot": "1",
            "type": "t_uint256"
          },
          {
            "astId": 7,
            "contract": "contracts/Did.sol:DecentralizedIdentity",
            "label": "exists",
            "offset": 0,
            "slot": "2",
            "type": "t_bool"
          },
          {
            "astId": 9,
            "contract": "contracts/Did.sol:DecentralizedIdentity",
            "label": "verified",
            "offset": 1,
            "slot": "2",
            "type": "t_bool"
          },
          {
            "astId": 11,
            "contract": "contracts/Did.sol:DecentralizedIdentity",
            "label": "revoked",
            "offset": 2,
            "slot": "2",
            "type": "t_bool"
          },
          {
            "astId": 13,
            "contract": "contracts/Did.sol:DecentralizedIdentity",
            "label": "owner",
            "offset": 3,
            "slot": "2",
            "type": "t_address"
          }
        ],
        "numberOfBytes": "96"
      },
      "t_uint256": {
        "encoding": "inplace",
        "label": "uint256",
        "numberOfBytes": "32"
      }
    }
  }
}